:100000000C9463000C948B000C948B000C945E0594
:100010000C945E050C945E050C948B000C948B0084
:100020000C948B000C948B000C948B000C94D805D2
:100030000C948B000C948B000C948B000C948B0014
:100040000C94BC040C948B000C942C050C940605A9
:100050000C948B000C948B000C948B000C948B00F4
:100060000C948B000C948B000000000024002700EF
:100070002A0000000008000201000003040700003D
:1000800000000000000000000000230026002900FE
:1000900000000000250028002B00040404040404D0
:1000A0000404020202020202030303030303010227
:1000B00004081020408001020408102001020408F6
:1000C0001020170EFB0D11241FBECFEFD8E0DEBFAE
:1000D000CDBF12E0A0E0B1E0ECEDF1E202C005908E
:1000E0000D92A638B107D9F724E0A6E8B2E001C026
:1000F0001D92A03CB207E1F710E0C2E6D0E004C0D8
:100100002197FE010E94D610C136D107C9F70E947F
:10011000F1080C94E1100C940000CF92DF92EF9262
:10012000FF920F931F93CF93DF936C017A018B01A2
:10013000C0E0D0E0CE15DF0581F0D8016D918D01D2
:10014000D601ED91FC910190F081E02DC601099559
:10015000892B11F02196EECF7E01C701DF91CF915F
:100160001F910F91FF90EF90DF90CF900895089529
:1001700081E08093DA02089581E08093D9020895A6
:1001800081E08093D802089581E08093D70208959A
:1001900081E08093D602089581E08093D50208958E
:1001A00080913203909133030196909333038093AF
:1001B000320308958091F1029091F202019690939A
:1001C000F2028093F102089581E08093EA0208959B
:1001D00080913503909136030196823091052CF47D
:1001E000909336038093350304C010923603109227
:1001F000350381E0809334030895FC01538D448DD1
:10020000252F30E0842F90E0821B930B541710F0C1
:10021000CF96089501970895FC01918D828D9817CE
:1002200061F0828DDF01A80FB11D5D968C91928DDA
:100230009F5F9F73928F90E008958FEF9FEF0895D7
:10024000FC01918D828D981731F0828DE80FF11DA0
:10025000858D90E008958FEF9FEF0895FC01918DBB
:10026000228D892F90E0805C9F4F821B91098F73B4
:100270009927089580E493E00E942E0121E0892BC4
:1002800009F420E0822F0895FC01848DDF01A80F7E
:10029000B11DA35ABF4F2C91848D90E001968F73AE
:1002A0009927848FA689B7892C93A089B1898C91CD
:1002B000837080648C93938D848D981306C002881C
:1002C000F389E02D80818F7D80830895EF92FF92E6
:1002D0000F931F93CF93DF93EC0181E0888F9B8D69
:1002E0008C8D981305C0E889F989808185FD26C029
:1002F000F62E0B8D10E00F5F1F4F0F731127E02EAE
:100300008C8DE8120CC00FB607FCFACFE889F9898A
:10031000808185FFF5CFCE010E944401F1CF8B8D06
:10032000FE01E80FF11DE35AFF4FF0829FB7F894EA
:100330000B8FEA89FB89808180620AC09FB7F8949D
:10034000EE89FF896083E889F98980818370806400
:1003500080839FBF81E090E0DF91CF911F910F914B
:10036000FF90EF900895CF93DF93EC01888D882361
:10037000C9F0EA89FB89808185FD05C0A889B98912
:100380008C9186FD0FC00FB607FCF5CF808185FFED
:10039000F2CFA889B9898C9185FFEDCFCE010E945B
:1003A0004401E7CFDF91CF91089580E090E0892B61
:1003B00029F00E943A0181110C94000008952091C7
:1003C000C9023091CA022817390771F49091C70207
:1003D0008091C802981741F0E091C702F0E0E95718
:1003E000FD4F808190E008958FEF9FEF08951F9358
:1003F000CF93DF93DC015C968D919C915D97009784
:1004000039F421E030E013963C932E9312973BC0D1
:100410005196ED91FC91529750962C915097322F16
:1004200030951FB75E964C915E97742F727041FDA8
:100430006095F8944081772311F0422B01C043234B
:100440004083EC012197F1F748E0508160FF02C042
:10045000522B01C053235083EC012197F1F766958D
:10046000415099F78081772319F08323808302C05C
:10047000282B20831FBF5C968D919C915D970197DF
:10048000F1F781E090E0DF91CF911F9108952091E5
:10049000C9023091CA022817390771F48091C80245
:1004A0002091C70290E0805C9F4F821B910960E41D
:1004B00070E00E94AE10089580E090E008952091D1
:1004C000C9023091CA0228173907B9F49091C702BE
:1004D0008091C802981789F0E091C702F0E0E957CF
:1004E000FD4F80812091C70230E02F5F3F4F2F7377
:1004F00033272093C70290E008958FEF9FEF089570
:10050000089580E090E00895089580913103882354
:1005100021F080E491E00E94AB068091EF0290917F
:10052000F0029093E9028093E8028091ED029091AD
:10053000EE029093E7028093E6028091EB029091A5
:10054000EC029093E5028093E40210923303109240
:10055000320308951092DA0281E08093E30285E489
:1005600091E00E943E078091EF029091F0020C947E
:100570002C071092D90281E08093E30285E591E097
:100580000E943E078091EF029091F0020C942C079C
:100590001092D80281E08093E00286E691E00E940A
:1005A0003E078091ED029091EE020C942C07109280
:1005B000D70281E08093E00286E791E00E943E0747
:1005C0008091ED029091EE020C942C071092D602CD
:1005D00081E08093DD0287E891E00E943E078091F0
:1005E000EB029091EC020C942C071092D50281E062
:1005F0008093DD0287E991E00E943E078091EB0243
:100600009091EC020C942C07CF93DF9388EA91E051
:100610000E94AB0686EB91E00E94AB0688EA91E06F
:100620000E94AB0684EC91E00E943E078091EF02AD
:100630009091F0020E942C078DEC91E00E943E0701
:100640008091ED029091EE020E942C0786ED91E0E0
:100650000E943E078091EB029091EC020E942C07D1
:100660008FED91E00E943E070E9440070E942C07F8
:1006700088EA91E00E94AB06C5EFD2E087EE91E0F8
:100680000E943E0769917991072E000C880B990B07
:100690000E94B90681EF91E00E943E0784EF91E04D
:1006A0000E943E0781EF91E00E943E078A899B8964
:1006B0000E942C0783E0C930D80701F788EA91E04F
:1006C000DF91CF910C94AB060E94DC10AF92BF92E9
:1006D000CF92DF92EF92FF920F931F93CF93DF930E
:1006E000E82E8B01EA01FF24F394161617060CF08E
:1006F000F12C6F2D8E2D0E942E08101611060CF075
:100700006DC0E12CF12C2BE8C22EDD24D3943BE408
:10071000A32E34E1B32E61E08C2F0E942E08C60177
:100720000197F1F760E08C2F0E942E08C501019718
:10073000F1F7C330D105B9F48091EF029091F00246
:1007400001969093F0028093EF0280913103882309
:10075000E9F18091E1029091E20201969093E20228
:100760008093E10233C0C530D105B9F48091ED0228
:100770009091EE0201969093EE028093ED028091AB
:100780003103882319F18091DE029091DF020196F6
:100790009093DF028093DE0219C0C730D105B1F417
:1007A0008091EB029091EC0201969093EC02809381
:1007B000EB0280913103882349F08091DB02909114
:1007C000DC0201969093DC028093DB028FEFE81A43
:1007D000F80A0E151F0509F09ECF72C017FF70C0F2
:1007E0006F2D8E2D0E942E08E12CF12C8BE8C82E47
:1007F000DD24D3949BE4A92E94E1B92E61E08C2FE3
:100800000E942E08C6010197F1F760E08C2F0E942C
:100810002E08C5010197F1F7C330D105B9F48091D5
:10082000EF029091F00201979093F0028093EF0213
:10083000809131038823E9F18091E1029091E202F5
:1008400001979093E2028093E10233C0C530D10555
:10085000B9F48091ED029091EE0201979093EE022F
:100860008093ED0280913103882319F18091DE029B
:100870009091DF0201979093DF028093DE0219C00E
:10088000C730D105B1F48091EB029091EC02019751
:100890009093EC028093EB0280913103882349F01E
:1008A0008091DB029091DC0201979093DC028093AF
:1008B000DB0281E0E81AF1080E151F0509F09ECF52
:1008C000DF91CF911F910F91FF90EF90DF90CF902C
:1008D000BF90AF9008956091EF027091F002719512
:1008E0006195710943E050E082E090E00E94660368
:1008F0006091ED027091EE0271956195710945E08C
:1009000050E084E090E00E9466036091EB027091F9
:10091000EC0271956195710947E050E086E090E046
:100920000E9466031092F2021092F10208953FB7FE
:10093000F89480913C0390913D03A0913E03B091C7
:100940003F0326B5A89B05C02F3F19F00196A11DB6
:10095000B11D3FBFBA2FA92F982F8827820F911D55
:10096000A11DB11DBC01CD0142E0660F771F881F9C
:10097000991F4A95D1F708951F920F920FB60F92C3
:1009800011242F933F938F939F93AF93BF938091A5
:10099000380390913903A0913A03B0913B03309111
:1009A000370323E0230F2D3720F40196A11DB11D3D
:1009B00005C026E8230F0296A11DB11D2093370321
:1009C0008093380390933903A0933A03B0933B0389
:1009D00080913C0390913D03A0913E03B0913F0371
:1009E0000196A11DB11D80933C0390933D03A093FC
:1009F0003E03B0933F03BF91AF919F918F913F9181
:100A00002F910F900FBE0F901F9018951F920F926D
:100A10000FB60F9211242F933F934F935F936F93D1
:100A20007F938F939F93AF93BF93EF93FF9380E454
:100A300093E00E944401FF91EF91BF91AF919F918C
:100A40008F917F916F915F914F913F912F910F9077
:100A50000FBE0F901F9018951F920F920FB60F9216
:100A600011242F938F939F93EF93FF93E091500363
:100A7000F09151038081E0915603F091570382FD7C
:100A800012C09081809159038F5F8F7320915A0318
:100A9000821751F0E0915903F0E0E05CFC4F958F34
:100AA0008093590301C08081FF91EF919F918F91B5
:100AB0002F910F900FBE0F901F9018951F920F92BD
:100AC0000FB60F9211242F933F934F935F936F9321
:100AD0007F938F939F93AF93BF93EF93FF93E09197
:100AE000C902F091CA02309709F451C0968DA685CB
:100AF000B785858591FF04C09C91892329F447C05F
:100B00009C91892309F043C0A389B4899C9185896C
:100B1000809589238C93868997890197F1F7608D59
:100B2000718DA685B785558538E020E0CB0101970A
:100B3000F1F7822F90E095958795282F4C914523CA
:100B400009F02068315091F7868D81FD20958091C4
:100B5000C80290E001968F7399273091C702381729
:100B600049F0A091C802B0E0A957BD4F2C938093E3
:100B7000C80203C0868D8160868F828D938D019718
:100B8000F1F7A389B4899C918589892B8C93FF9176
:100B9000EF91BF91AF919F918F917F916F915F91F5
:100BA0004F913F912F910F900FBE0F901F9018956E
:100BB0001F920F920FB60F9211242F933F934F93D2
:100BC0005F936F937F938F939F93AF93BF93EF93B5
:100BD000FF938091860287FF05C0109285001092D6
:100BE00084001BC020918602022E000C330B8091E2
:100BF000010490E02817390784F480918602082EBA
:100C0000000C990BFC01EE0FFF1F8E0F9F1FFC01C4
:100C1000E352FC4F808186FD15C0809186028F5F74
:100C20008093860220918602022E000C330B809165
:100C3000010490E028173907C4F4809186028C30B3
:100C400064F113C080918602082E000C990BFC0100
:100C5000EE0FFF1F8E0F9F1FFC01E352FC4F8081A0
:100C600060E08F730E942E08D8CF8091840090910D
:100C70008500049680349C4918F480E49CE905C002
:100C800080918400909185000496909389008093D0
:100C900088008FEF809386023BC0209184003091C2
:100CA000850080918602082E000C990BFC01EE0F46
:100CB000FF1F8E0F9F1FFC01E352FC4F8181928129
:100CC000820F931F90938900809388008091860201
:100CD000082E000C990BFC01EE0FFF1F8E0F9F1FBB
:100CE000FC01E352FC4F808186FF12C08091860296
:100CF000082E000C990BFC01EE0FFF1F8E0F9F1F9B
:100D0000FC01E352FC4F808161E08F730E942E084A
:100D1000FF91EF91BF91AF919F918F917F916F91D3
:100D20005F914F913F912F910F900FBE0F901F90A9
:100D30001895009769F0FC0101900020E9F73197C0
:100D4000AF01481B590BBC0180E493E00C948D006B
:100D500080E090E00895CF93DF930E949906EC0124
:100D600082E892E00E9499068C0F9D1FDF91CF913F
:100D700008958F929F92AF92BF92CF92DF92EF929F
:100D8000FF920F931F93CF93DF93CDB7DEB7A19759
:100D90000FB6F894DEBF0FBECDBF6B017C0197FF8D
:100DA0002BC06DE280E493E00E9466018C01222753
:100DB0003327A9012C193D094E095F0919A2CE015B
:100DC00081967C019AE0892E912CA12CB12CCA012C
:100DD000B901A50194010E947110605DF701629351
:100DE0007F01211531054105510589F7CF010E9489
:100DF0009906800F911F1DC09B01AC0119A28E01A5
:100E00000F5D1F4F8AE0C82ED12CE12CF12CCA01B6
:100E1000B901A70196010E947110605DF80162930B
:100E20008F01211531054105510589F7CF010E9438
:100E30009906A1960FB6F894DEBF0FBECDBFDF9125
:100E4000CF911F910F91FF90EF90DF90CF90BF90C7
:100E5000AF909F908F900895CF93DF93BC01990F2F
:100E6000880B990B0E94B906EC0182E892E00E947F
:100E700099068C0F9D1FDF91CF9108950C949906D0
:100E80008F929F92AF92BF92CF92DF92EF92FF929A
:100E90008091BF0428E532E06901C81AD10887FDB6
:100EA000D394CC0CDD1CCC0CDD1C0D2C000CEE08FE
:100EB000FF088091BE0428E830E04901881A9108B3
:100EC00087FD9394880C991C880C991C092C000CA4
:100ED000AA08BB088091BD048F3FC1F090E0FC01DF
:100EE000EE0FFF1F8E0F9F1FFC01E352FC4F21816D
:100EF000328143E0220F331F4A95E1F754E03695E3
:100F000027955A95E1F72E5F3F4F02C020E030E071
:100F10002F5F3F4FC901330FAA0BBB0B9C01AD01E3
:100F2000281939094A095B09A4EBB0E00E945E1058
:100F3000A7019601281939094A095B090E943F1047
:100F4000C901FF90EF90DF90CF90BF90AF909F903E
:100F50008F900895CF92DF92EF92FF92DC01A03242
:100F600082E0B8070CF03EC0B7FD06C0A53BB10556
:100F70002CF0A4EBB0E002C0A0E0B0E08091BE0491
:100F800028E830E06901C81AD10887FDD394CC0C59
:100F9000DD1CCC0CDD1C0D2C000CEE08FF08809134
:100FA000BF0428E532E0281B310987FD3395220F65
:100FB000331F220F331FA901330F660B770B9A01E2
:100FC000AB012C193D094E095F090E94691024EB01
:100FD00030E040E050E00E943F10C20ED31EE41EFD
:100FE000F51ED6019091BD049C3098F58091BE0409
:100FF00048E850E0481B510987FD5395440F551FA1
:10100000440F551FA417B5078CF08091BF0428E545
:1010100032E0281B310987FD3395220F331F220F41
:10102000331FAD012A173B070CF4A90142505109A7
:10103000440F551F2FB7F894892F90E0FC01EE0F55
:10104000FF1F8E0F9F1FFC01E352FC4F5283418311
:101050002FBFFF90EF90DF90CF90089590E0FC01BC
:10106000EE58FF4F2491FC01E255FF4F3491FC01F3
:10107000E656FF4FE491EE2309F43CC0222339F1F8
:10108000233091F038F42130A9F0223001F584B5F5
:101090008F7D12C0273091F02830A1F02430B9F4B0
:1010A000809180008F7D03C0809180008F77809336
:1010B00080000DC084B58F7784BD09C08091B000D9
:1010C0008F7703C08091B0008F7D8093B000F0E0F7
:1010D000EE0FFF1FE057FF4FA591B4919FB7F89413
:1010E000611104C08C913095382302C0EC913E2BE5
:1010F0003C939FBF0895CF93DF9390E0FC01E255AE
:10110000FF4F2491FC01E656FF4F8491882361F143
:1011100090E0880F991FFC01E859FF4FC591D491C9
:10112000FC01E057FF4FA591B491611109C09FB731
:10113000F8948881209582238883EC912E230BC01C
:10114000623061F49FB7F8948881322F3095832301
:101150008883EC912E2B2C939FBF06C08FB7F894F9
:10116000E8812E2B28838FBFDF91CF9108958F9236
:101170009F92AF92BF92CF92DF92EF92FF926B015C
:101180007C010E9497044B015C01C114D104E1046D
:10119000F104F1F00E949704DC01CB018819990950
:1011A000AA09BB09883E9340A105B10570F321E06F
:1011B000C21AD108E108F10888EE880E83E0981E73
:1011C000A11CB11CC114D104E104F10419F7DDCF55
:1011D000FF90EF90DF90CF90BF90AF909F908F9057
:1011E0000895789484B5826084BD84B5816084BD9F
:1011F00085B5826085BD85B5816085BD80916E00B5
:10120000816080936E0010928100809181008260E5
:101210008093810080918100816080938100809122
:1012200080008160809380008091B1008460809311
:10123000B1008091B00081608093B00080917A000D
:10124000846080937A0080917A00826080937A0033
:1012500080917A00816080937A0080917A00806822
:1012600080937A001092C1008091BD048C3008F008
:1012700051C061E089E00E947B088091BD04E82FA5
:10128000F0E09F01220F331FE20FF31FE352FC4FE8
:101290009081907C996090831092BE041092BF045C
:1012A0006CE00E94A2109CE0899FB001112440E0F4
:1012B00050E09B01240F351FF901EE0FFF1F2E0F89
:1012C0003F1FF901E352FC4F908196FD16C04F5F1E
:1012D0005F4F4C30510569F781110FC010928000AB
:1012E00082E0809381001092850010928400B19A70
:1012F00080916F00826080936F00E091BD04F0E008
:10130000CF01880F991FE80FF91FE352FC4F80812E
:1013100080648083E0915003F091510382E08083E8
:10132000E0914C03F0914D031082E0914E03F09157
:101330004F038FEC808310925803E0915403F09197
:10134000550386E08083E0915203F091530380813E
:1013500080618083E0915203F09153038081886023
:101360008083E0915203F0915303808180688083F1
:10137000E0915203F091530380818F7D808310921E
:10138000B9041092B8041092B7041092B6041092E7
:10139000B5041092B4048DE991E09093BB0480935E
:1013A000BA049091AA04963108F058C02DEB30E0B1
:1013B0003093B5042093B4042BE931E03093B704A3
:1013C0002093B6042CE231E03093B9042093B804A2
:1013D00040916800983058F031E09E3008F430E0D9
:1013E00021E0822F01C0880F3A95EAF701C084E01E
:1013F000842B80936800983038F09E3040F096310E
:1014000048F020E030E008C02DE630E005C02BE6D3
:1014100030E002C02CE630E03093B2042093B104F7
:10142000983030F481E001C0880F9A95EAF70EC039
:10143000292F30E09E3018F42850310902C02E5078
:10144000310981E001C0880F2A95EAF78093B3043F
:101450008091BA049091BB040197F1F78091B80490
:101460009091B904892B49F1E091C902F091CA0227
:1014700084E0EE39F80709F1309739F0A389B4898F
:101480009C918589809589238C938091BC048E7F63
:101490008093BC041092C8021092C7028EE994E0B7
:1014A0009093CA028093C902E091B104F091B20412
:1014B00090818091B304892B80838FEF91E00E940B
:1014C000AB0662E370E080E090E00E94B70861E064
:1014D00083E00E947B0861E082E00E947B0861E07B
:1014E00085E00E947B0861E084E00E947B0861E067
:1014F00087E00E947B0861E086E00E947B0861E053
:101500008DE00E947B0888EB90E090939704809395
:10151000960410929904109298048CEB90E09093AA
:101520008B0480938A0410928D0410928C0480ECBA
:1015300090E090937F0480937E0410928104109237
:10154000800484EC90E09093730480937204109272
:1015500075041092740488EC90E090936704809373
:10156000660410926904109268048CEC90E09093E9
:101570005B0480935A0410925D0410925C0480ED29
:1015800090E090934F0480934E0410925104109277
:1015900050048AED90E090934304809342041092AB
:1015A00045041092440484EE90E0909337048093B5
:1015B0003604109239041092380484E093E090933A
:1015C0002B0480932A0410922D0410922C0487EB94
:1015D00090E090931F0480931E04109221041092B7
:1015E000200488EE90E090931304809312041092EC
:1015F0001504109214048AEA92E090939B0480935D
:101600009A0410929D0410929C0489EB92E09093AE
:101610008F0480938E04109291041092900488ECB1
:1016200092E0909383048093820410928504109238
:10163000840487ED92E0909377048093760410926F
:1016400079041092780486EE92E090936B04809374
:101650006A0410926D0410926C0485EF92E09093EE
:101660005F0480935E04109261041092600485E828
:1016700092E0909353048093520410925504109278
:1016800054048BE694E090934704809346041092B0
:1016900049041092480484E892E0909317048093E0
:1016A0001604109219041092180432EDE32E32E061
:1016B000F32E0CE210E08824839445EFC42E42E020
:1016C000D42E5CE3952E8EE994E00E944702181612
:1016D00019060CF046C06AE070E080E090E00E94DD
:1016E000B7088EE994E00E945F02C82F853659F74B
:1016F0008EE994E00E94470206972CF3C093CB0238
:10170000CCECD2E08EE994E00E945F028993EC1663
:10171000FD06C1F71092D2028091CF028F3F99F659
:101720008091D0028F3F79F68091D1028F3F59F698
:101730004091CE0250E060E070E09091CD022091A7
:10174000CC02E0E0F1E0A191B191109709F4BBCF98
:101750008C912813F8CF11968C9111979813F3CF91
:1017600027C28091DA02882341F043E050E061E033
:1017700070E082E090E00E9466038091D9028823A5
:1017800041F043E050E06FEF7FEF82E090E00E9495
:1017900066038091D802882341F045E050E061E083
:1017A00070E084E090E00E9466038091D702882375
:1017B00041F045E050E06FEF7FEF84E090E00E9461
:1017C00066038091D602882341F047E050E061E053
:1017D00070E086E090E00E9466038091D502882345
:1017E00041F047E050E06FEF7FEF86E090E00E942D
:1017F000660380913103882309F4B6C080913403D5
:10180000882311F1C091F302D091F402FE01EE0F92
:10181000FF1FEB50FD4F11830083FE01EE0FFF1FF2
:10182000E35EFC4F118300830E944007FE01EE0F30
:10183000FF1FE75FFC4F9183808310923403219652
:10184000D093F402C093F3028091E302882361F104
:101850008091F3029091F402FC01EE0FFF1FEB5018
:10186000FD4F23E030E031832083FC01EE0FFF1FAA
:10187000E35EFC4F22E030E031832083FC01EE0F79
:10188000FF1FE75FFC4F2091E1023091E2023183BC
:1018900020831092E30201969093F4028093F30266
:1018A0001092E2021092E1028091E002882361F13D
:1018B0008091F3029091F402FC01EE0FFF1FEB50B8
:1018C000FD4F25E030E031832083FC01EE0FFF1F48
:1018D000E35EFC4F24E030E031832083FC01EE0F17
:1018E000FF1FE75FFC4F2091DE023091DF02318362
:1018F00020831092E00201969093F4028093F30209
:101900001092DF021092DE028091DD02882361F1E5
:101910008091F3029091F402FC01EE0FFF1FEB5057
:10192000FD4F27E030E031832083FC01EE0FFF1FE5
:10193000E35EFC4F26E030E031832083FC01EE0FB4
:10194000FF1FE75FFC4F2091DB023091DC02318307
:1019500020831092DD0201969093F4028093F302AB
:101960001092DC021092DB028091EA0281110BC01E
:1019700080913503909136038130910509F0B6C00E
:101980008AEA90E0B7C08091E8029091E9020E9453
:101990002C078091E6029091E7020E942C0780912B
:1019A000E4029091E5020E942C076091E802709198
:1019B000E9028091EF029091F002681B790B43E0FD
:1019C00050E082E090E00E9466036091E602709130
:1019D000E7028091ED029091EE02681B790B45E0E1
:1019E00050E084E090E00E9466036091E402709110
:1019F000E5028091EB029091EC02681B790B47E0C5
:101A000050E086E090E00E946603C9E0D3E089914F
:101A100099918C9769F468EE73E080E090E00E9401
:101A2000B708C5EFD2E0412C512C3201439440C09D
:101A300080E090E00E94AA0793E0CD31D90739F702
:101A4000EACF888199818C9751F48C899D890E9475
:101A5000AA0764EF71E080E090E00E94B708488137
:101A600059814C32510531F06C897D8988A599A541
:101A70000E9466036AE070E080E090E00E94B70890
:101A80002296F50180819181892B31F480E292E0E8
:101A90000E94AB061092EA02FFEF4F1A5F0A6F0A2C
:101AA0007F0A8BE0481651046104710409F460CF89
:101AB0005E0188819981892B21F2C301B2010E94C4
:101AC000B90682E192E00E943E0768817981072E83
:101AD000000C880B990B0E94B90682EF91E00E94DE
:101AE0003E078C899D890E942C07ABCF892B31F44E
:101AF00084E690E00E94AA0710923403C09132035A
:101B0000D09133031C161D062CF5809231032196CB
:101B1000D0933303C093320361E070E080E090E043
:101B20000E94B708C93ED340ACF0F601892D11924E
:101B30008A95E9F71092F4021092F30210923103A1
:101B40008CE292E00E94AB0660E971E080E090E0F8
:101B50000E94B708C091F102D091F2021C161D0636
:101B600024F52196D093F202C093F10261E070E077
:101B700080E090E00E94B708C93ED340B4F01092D4
:101B8000F0021092EF021092EE021092ED0210920B
:101B9000EC021092EB0287E392E00E94AB0660E950
:101BA00071E080E090E00E94B7080E94D5018BCDE3
:101BB000413051056105710561F41496ED91FC9178
:101BC0001597309709F47FCD16968D919C911797B4
:101BD00010C0452B462B472B09F075CD1896ED917B
:101BE000FC911997309709F46ECD1A968D919C91BE
:101BF0001B97099568CD82E391E090939F048093B1
:101C00009E048091C9029091CA028E59944071F449
:101C1000E091B104F091B20490818091B304809579
:101C2000892380831092CA021092C90208951092EB
:101C300043031092420388EE93E0A0E0B0E080936B
:101C4000440390934503A0934603B093470380E277
:101C500091E0909341038093400385EC90E0909352
:101C60004D0380934C0384EC90E090934F0380935A
:101C70004E0380EC90E0909351038093500381ECED
:101C800090E0909353038093520382EC90E0909302
:101C900055038093540386EC90E090935703809310
:101CA00056031092590310925A0310925B0310923C
:101CB0005C03809101048C30A0F491E0980F909324
:101CC00001048093BD0490E0FC01EE0FFF1F8E0F16
:101CD0009F1FFC01E352FC4F88EB9BE092838183C2
:101CE00003C08FEF8093BD041092A1041092A00452
:101CF00088EE93E0A0E0B0E08093A2049093A30468
:101D0000A093A404B093A50482E391E090939F0470
:101D100080939E041092B5041092B4041092B704FC
:101D20001092B6041092B9041092B8041092BB0439
:101D30001092BA046091BC046E7F6D7F6093BC0406
:101D40006695617081E068278BE00E942E0861E053
:101D50008BE00E947B08E9EBF0E0E491E093AE04B5
:101D6000E5EAF0E0E491F0E0EE0FFF1FE057FF4FEF
:101D7000859194919093B0048093AF0460E08AE0E1
:101D80000E947B088091BC0481FD04C061E08AE070
:101D90000E942E088AE08093AA04E8EBF0E0E49128
:101DA000E093AB04E4EAF0E0E491F0E0EE0FFF1F13
:101DB000EA57FF4F259134913093AD042093AC0442
:101DC0001092920491E09093930429E432E03093CE
:101DD0009504209394041092970410929604109204
:101DE0009B0410929A0410929D0410929C041092ED
:101DF0009904109298041092860492E090938704BC
:101E00002CE432E0309389042093880410928B04F0
:101E100010928A0410928F0410928E0410929104F2
:101E20001092900410928D0410928C0410927A04F7
:101E300093E090937B0421E532E030937D0420937E
:101E40007C0410927F0410927E04109283041092FE
:101E500082041092850410928404109281041092DE
:101E6000800410926E0494E090936F0426E532E0B3
:101E700030937104209370041092730410927204D2
:101E800010927704109276041092790410927804DC
:101E900010927504109274041092620495E090936D
:101EA00063042EE532E030936504209364041092BD
:101EB00067041092660410926B0410926A041092E8
:101EC0006D0410926C0410926904109268041092D0
:101ED000560496E09093570424E632E03093590478
:101EE0002093580410925B0410925A0410925F04DD
:101EF00010925E04109261041092600410925D04CE
:101F000010925C0410924A0497E090934B0429E6E7
:101F100032E030934D0420934C0410924F04109201
:101F20004E041092530410925204109255041092D1
:101F30005404109251041092500410923E0498E000
:101F400090933F042EE632E0309341042093400406
:101F500010924304109242041092470410924604D7
:101F600010924904109248041092450410924404BF
:101F70001092320499E09093330423E732E03093D7
:101F800035042093340410923704109236041092D2
:101F90003B0410923A0410923D0410923C041092BB
:101FA000390410923804109226048093270487E79E
:101FB00092E0909329048093280410922B041092AD
:101FC0002A0410922F0410922E04109231041092C1
:101FD000300410922D0410922C0410921A048BE0FD
:101FE00080931B0489E792E090931D0480931C0466
:101FF00010921F0410921E041092230410922204C7
:1020000010922504109224041092210410922004AE
:1020100010920E048CE080930F048BE792E0909373
:102020001104809310041092130410921204109261
:1020300017041092160410921904109218041092AA
:10204000150410921404109202048DE0809303048E
:102050008DE792E0909305048093040410920704A6
:102060001092060410920B0410920A0410920D04B0
:1020700010920C0410920904109208040895052E81
:1020800097FB1EF400940E94561057FD07D00E9443
:10209000711007FC03D04EF40C94561050954095E7
:1020A000309521953F4F4F4F5F4F08959095809504
:1020B000709561957F4F8F4F9F4F08950E949310A9
:1020C000A59F900DB49F900DA49F800D911D11248C
:1020D0000895B7FF0C945E100E945E10821B930B54
:1020E0000895A1E21A2EAA1BBB1BFD010DC0AA1F59
:1020F000BB1FEE1FFF1FA217B307E407F50720F071
:10210000A21BB30BE40BF50B661F771F881F991FEB
:102110001A9469F760957095809590959B01AC0134
:10212000BD01CF010895A29FB001B39FC001A39F3D
:10213000700D811D1124911DB29F700D811D112400
:10214000911D0895991B79E004C0991F961708F016
:10215000961B881F7A95C9F78095089597FB072EDF
:1021600016F4009407D077FD09D00E94C21007FC36
:1021700005D03EF4909581959F4F08957095619597
:102180007F4F0895AA1BBB1B51E107C0AA1FBB1FAD
:10219000A617B70710F0A61BB70B881F991F5A95F3
:1021A000A9F780959095BC01CD010895EE0FFF1F12
:1021B0000590F491E02D099481E090E0F8940C945E
:1021C000E11010E0C2E6D0E004C0FE010E94D6108B
:0C21D0002196C336D107C9F7F894FFCF61
:1021DC00920486047A046E04620456044A043E0493
:1021EC00320426041A040E0402040000000000004D
:1021FC0066018D00FD00B3012E010C0120010000D1
:10220C000000F7018D008102B70047025F02DF0179
:10221C0053617665007853746570732068C3B87920
:10222C0072653A20007853746570732076656E730E
:10223C007472653A20007953746570732068C3B862
:10224C007972653A20007953746570732076656EE7
:10225C00737472653A20007A53746570732068C386
:10226C00B87972653A20007A53746570732076657C
:10227C006E737472653A20002D2D2D2D2D2D2D2D64
:10228C002D2D2D2D2D0053595354454D2053544174
:10229C00545553007853746570733A200079537415
:1022AC006570733A20007A53746570733A2000732A
:1022BC006572766F3A20007374657050696E3A20BF
:1022CC000020200053746570536176653A200068D5
:1022DC00617264776172652073657269616C204FFD
:1022EC004B002073746570706572206E6F3A20001D
:1022FC00656E64206F66206C696E6500536176654F
:10230C00207265736574002058595A207374657077
:10231C0073207A65726F656400757000646F776EF8
:10232C00006261636B00666F727761726400726940
:10233C00676874006C656674007361766500657817
:10234C0065630072656300310032003300647561AF
:06235C006C000D0A0000F8
:00000001FF
